{
  "transactions": [
    {
      "hash": "0xc41f6efc0e17ffbd164dbde2a83caf1e7bccb762a0e0774d8d7ec721c1a6c858",
      "transactionType": "CALL",
      "contractName": null,
      "contractAddress": "0x779877a7b0d9e8603169ddbd7836e478b4624789",
      "function": "transferAndCall(address,uint256,bytes)",
      "arguments": [
        "0x9DdfaCa8183c41ad55329BdeeD9F6A8d53168B1B",
        "3000000000000000000",
        "0x2f7596ac033ccf8490f1449b17d9e10dc27099e1f9e675d02d7c80a5a3bee562"
      ],
      "transaction": {
        "from": "0xb8b32f2ce048d4e1bb08a797798da89b087be2ec",
        "to": "0x779877a7b0d9e8603169ddbd7836e478b4624789",
        "gas": "0x14cbb",
        "value": "0x0",
        "input": "0x4000aea00000000000000000000000009ddfaca8183c41ad55329bdeed9f6a8d53168b1b00000000000000000000000000000000000000000000000029a2241af62c0000000000000000000000000000000000000000000000000000000000000000006000000000000000000000000000000000000000000000000000000000000000202f7596ac033ccf8490f1449b17d9e10dc27099e1f9e675d02d7c80a5a3bee562",
        "nonce": "0x10",
        "chainId": "0xaa36a7"
      },
      "additionalContracts": [],
      "isFixedGasLimit": false
    }
  ],
  "receipts": [
    {
      "status": "0x1",
      "cumulativeGasUsed": "0xac083e",
      "logs": [
        {
          "address": "0x779877a7b0d9e8603169ddbd7836e478b4624789",
          "topics": [
            "0xddf252ad1be2c89b69c2b068fc378daa952ba7f163c4a11628f55a4df523b3ef",
            "0x000000000000000000000000b8b32f2ce048d4e1bb08a797798da89b087be2ec",
            "0x0000000000000000000000009ddfaca8183c41ad55329bdeed9f6a8d53168b1b"
          ],
          "data": "0x00000000000000000000000000000000000000000000000029a2241af62c0000",
          "blockHash": "0xd22a2f891e982a402b2576fef3a38be1c865b07e8366e4c6d155f8fd54f3a64c",
          "blockNumber": "0x711d69",
          "transactionHash": "0xc41f6efc0e17ffbd164dbde2a83caf1e7bccb762a0e0774d8d7ec721c1a6c858",
          "transactionIndex": "0x4c",
          "logIndex": "0x92",
          "removed": false
        },
        {
          "address": "0x779877a7b0d9e8603169ddbd7836e478b4624789",
          "topics": [
            "0xe19260aff97b920c7df27010903aeb9c8d2be5d310a2c67824cf3f15396e4c16",
            "0x000000000000000000000000b8b32f2ce048d4e1bb08a797798da89b087be2ec",
            "0x0000000000000000000000009ddfaca8183c41ad55329bdeed9f6a8d53168b1b"
          ],
          "data": "0x00000000000000000000000000000000000000000000000029a2241af62c0000000000000000000000000000000000000000000000000000000000000000004000000000000000000000000000000000000000000000000000000000000000202f7596ac033ccf8490f1449b17d9e10dc27099e1f9e675d02d7c80a5a3bee562",
          "blockHash": "0xd22a2f891e982a402b2576fef3a38be1c865b07e8366e4c6d155f8fd54f3a64c",
          "blockNumber": "0x711d69",
          "transactionHash": "0xc41f6efc0e17ffbd164dbde2a83caf1e7bccb762a0e0774d8d7ec721c1a6c858",
          "transactionIndex": "0x4c",
          "logIndex": "0x93",
          "removed": false
        },
        {
          "address": "0x9ddfaca8183c41ad55329bdeed9f6a8d53168b1b",
          "topics": [
            "0x1ced9348ff549fceab2ac57cd3a9de38edaaab274b725ee82c23e8fc8c4eec7a",
            "0x2f7596ac033ccf8490f1449b17d9e10dc27099e1f9e675d02d7c80a5a3bee562"
          ],
          "data": "0x000000000000000000000000000000000000000000000002b5e3af16b1880000000000000000000000000000000000000000000000000002df85d331a7b40000",
          "blockHash": "0xd22a2f891e982a402b2576fef3a38be1c865b07e8366e4c6d155f8fd54f3a64c",
          "blockNumber": "0x711d69",
          "transactionHash": "0xc41f6efc0e17ffbd164dbde2a83caf1e7bccb762a0e0774d8d7ec721c1a6c858",
          "transactionIndex": "0x4c",
          "logIndex": "0x94",
          "removed": false
        }
      ],
      "logsBloom": "0x00000004000000000000000000000000000000000020000000000000020000000000000000000060000000000000000000000000000000000000040000000000000000000000000000000008000000000000000000000000000020000020000008000000000000000000000000000000000000000000000000000010000040000000000000000000000000010000800000000020020000000000200000000000000000000000000000000000010000000000000000000000000004000000000000000002000000000000000000000000000000000000000100000000000000000010000000000000800080000000000000000000000000000000000000000000",
      "type": "0x2",
      "transactionHash": "0xc41f6efc0e17ffbd164dbde2a83caf1e7bccb762a0e0774d8d7ec721c1a6c858",
      "transactionIndex": "0x4c",
      "blockHash": "0xd22a2f891e982a402b2576fef3a38be1c865b07e8366e4c6d155f8fd54f3a64c",
      "blockNumber": "0x711d69",
      "gasUsed": "0xf0e5",
      "effectiveGasPrice": "0x1a85db776",
      "from": "0xb8b32f2ce048d4e1bb08a797798da89b087be2ec",
      "to": "0x779877a7b0d9e8603169ddbd7836e478b4624789",
      "contractAddress": null
    }
  ],
  "libraries": [],
  "pending": [],
  "returns": {},
  "timestamp": 1735910784,
  "chain": 11155111,
  "commit": "f542cf2"
}